{
    "contractName": "LibraryContract",
    "abi": [
        {
            "inputs": [],
            "stateMutability": "nonpayable",
            "type": "constructor"
        },
        {
            "inputs": [
                {
                    "internalType": "string",
                    "name": "_name",
                    "type": "string"
                },
                {
                    "internalType": "string",
                    "name": "_author",
                    "type": "string"
                },
                {
                    "internalType": "string",
                    "name": "_category",
                    "type": "string"
                },
                {
                    "internalType": "string",
                    "name": "_isbn",
                    "type": "string"
                },
                {
                    "internalType": "bool",
                    "name": "_isDeleted",
                    "type": "bool"
                }
            ],
            "name": "addBook",
            "outputs": [
                {
                    "internalType": "uint256",
                    "name": "",
                    "type": "uint256"
                }
            ],
            "stateMutability": "nonpayable",
            "type": "function"
        },
        {
            "inputs": [
                {
                    "internalType": "uint256",
                    "name": "_bookId",
                    "type": "uint256"
                },
                {
                    "internalType": "string",
                    "name": "_name",
                    "type": "string"
                },
                {
                    "internalType": "string",
                    "name": "_phoneNumber",
                    "type": "string"
                },
                {
                    "internalType": "string",
                    "name": "_walletAddress",
                    "type": "string"
                },
                {
                    "internalType": "uint256",
                    "name": "_issueDate",
                    "type": "uint256"
                }
            ],
            "name": "borrowBook",
            "outputs": [
                {
                    "internalType": "uint256",
                    "name": "",
                    "type": "uint256"
                }
            ],
            "stateMutability": "nonpayable",
            "type": "function"
        },
        {
            "inputs": [
                {
                    "internalType": "uint256",
                    "name": "_id",
                    "type": "uint256"
                }
            ],
            "name": "deleteBook",
            "outputs": [],
            "stateMutability": "nonpayable",
            "type": "function"
        },
        {
            "inputs": [],
            "name": "getAllBooks",
            "outputs": [
                {
                    "components": [
                        {
                            "internalType": "uint256",
                            "name": "id",
                            "type": "uint256"
                        },
                        {
                            "internalType": "string",
                            "name": "name",
                            "type": "string"
                        },
                        {
                            "internalType": "string",
                            "name": "author",
                            "type": "string"
                        },
                        {
                            "internalType": "string",
                            "name": "category",
                            "type": "string"
                        },
                        {
                            "internalType": "string",
                            "name": "isbn",
                            "type": "string"
                        },
                        {
                            "internalType": "bool",
                            "name": "isDeleted",
                            "type": "bool"
                        }
                    ],
                    "internalType": "struct LibraryContract.Book[]",
                    "name": "",
                    "type": "tuple[]"
                }
            ],
            "stateMutability": "view",
            "type": "function"
        },
        {
            "inputs": [
                {
                    "internalType": "uint256",
                    "name": "_id",
                    "type": "uint256"
                }
            ],
            "name": "getBook",
            "outputs": [
                {
                    "components": [
                        {
                            "internalType": "uint256",
                            "name": "id",
                            "type": "uint256"
                        },
                        {
                            "internalType": "string",
                            "name": "name",
                            "type": "string"
                        },
                        {
                            "internalType": "string",
                            "name": "author",
                            "type": "string"
                        },
                        {
                            "internalType": "string",
                            "name": "category",
                            "type": "string"
                        },
                        {
                            "internalType": "string",
                            "name": "isbn",
                            "type": "string"
                        },
                        {
                            "internalType": "bool",
                            "name": "isDeleted",
                            "type": "bool"
                        }
                    ],
                    "internalType": "struct LibraryContract.Book",
                    "name": "",
                    "type": "tuple"
                }
            ],
            "stateMutability": "view",
            "type": "function"
        },
        {
            "inputs": [],
            "name": "getBorrowedBooks",
            "outputs": [
                {
                    "components": [
                        {
                            "internalType": "uint256",
                            "name": "id",
                            "type": "uint256"
                        },
                        {
                            "internalType": "uint256",
                            "name": "bookId",
                            "type": "uint256"
                        },
                        {
                            "internalType": "uint256",
                            "name": "borrowerId",
                            "type": "uint256"
                        },
                        {
                            "internalType": "uint256",
                            "name": "issueDate",
                            "type": "uint256"
                        },
                        {
                            "internalType": "uint256",
                            "name": "returnDate",
                            "type": "uint256"
                        },
                        {
                            "internalType": "bool",
                            "name": "isLost",
                            "type": "bool"
                        }
                    ],
                    "internalType": "struct LibraryContract.BorrowedBook[]",
                    "name": "",
                    "type": "tuple[]"
                }
            ],
            "stateMutability": "view",
            "type": "function"
        },
        {
            "inputs": [
                {
                    "internalType": "uint256",
                    "name": "_borrowedBookId",
                    "type": "uint256"
                }
            ],
            "name": "markBookLost",
            "outputs": [],
            "stateMutability": "nonpayable",
            "type": "function"
        },
        {
            "inputs": [
                {
                    "internalType": "uint256",
                    "name": "_borrowedBookId",
                    "type": "uint256"
                },
                {
                    "internalType": "uint256",
                    "name": "_returndate",
                    "type": "uint256"
                }
            ],
            "name": "returnBook",
            "outputs": [],
            "stateMutability": "nonpayable",
            "type": "function"
        },
        {
            "inputs": [
                {
                    "internalType": "uint256",
                    "name": "_id",
                    "type": "uint256"
                },
                {
                    "internalType": "string",
                    "name": "_name",
                    "type": "string"
                },
                {
                    "internalType": "string",
                    "name": "_author",
                    "type": "string"
                },
                {
                    "internalType": "string",
                    "name": "_category",
                    "type": "string"
                }
            ],
            "name": "updateBook",
            "outputs": [
                {
                    "internalType": "bool",
                    "name": "success",
                    "type": "bool"
                }
            ],
            "stateMutability": "nonpayable",
            "type": "function"
        }
    ],
    "bytecode": "608060405260016005556001600655600160075534801561001f57600080fd5b50600080546001600160a01b03191633179055611826806100416000396000f3fe608060405234801561001057600080fd5b50600436106100935760003560e01c80638ccca18a116100665780638ccca18a1461010f578063ce034cf214610124578063d2ea769a14610137578063e0ff5b8b1461014a578063f1b4c9121461016a57600080fd5b80632151fb3814610098578063354528e8146100ad5780633904e647146100cb5780637586f9f1146100ee575b600080fd5b6100ab6100a63660046110d7565b61017d565b005b6100b5610262565b6040516100c291906111bb565b60405180910390f35b6100de6100d93660046112c0565b610590565b60405190151581526020016100c2565b6101016100fc366004611352565b610648565b6040519081526020016100c2565b6101176107bf565b6040516100c291906113ec565b6100ab610132366004611466565b610921565b610101610145366004611488565b610a74565b61015d6101583660046110d7565b610b70565b6040516100c2919061154f565b6100ab6101783660046110d7565b610e25565b6000546001600160a01b031633146101b05760405162461bcd60e51b81526004016101a790611562565b60405180910390fd5b6000811180156101c1575060055481105b6101dd5760405162461bcd60e51b81526004016101a7906115b0565b6000818152600160205260409020600581015460ff16156102375760405162461bcd60e51b81526020600482015260146024820152731093d3d2d7d053149150511657d111531155115160621b60448201526064016101a7565b6005018054600160ff1991821681179092556000928352600460205260409092208054909216179055565b60606000600160055461027591906115ef565b67ffffffffffffffff81111561028d5761028d61121d565b6040519080825280602002602001820160405280156102c657816020015b6102b361109f565b8152602001906001900390816102ab5790505b50905060015b60055481101561058a57600081815260016020818152604092839020835160c081019094528054845291820180549184019161030790611608565b80601f016020809104026020016040519081016040528092919081815260200182805461033390611608565b80156103805780601f1061035557610100808354040283529160200191610380565b820191906000526020600020905b81548152906001019060200180831161036357829003601f168201915b5050505050815260200160028201805461039990611608565b80601f01602080910402602001604051908101604052809291908181526020018280546103c590611608565b80156104125780601f106103e757610100808354040283529160200191610412565b820191906000526020600020905b8154815290600101906020018083116103f557829003601f168201915b5050505050815260200160038201805461042b90611608565b80601f016020809104026020016040519081016040528092919081815260200182805461045790611608565b80156104a45780601f10610479576101008083540402835291602001916104a4565b820191906000526020600020905b81548152906001019060200180831161048757829003601f168201915b505050505081526020016004820180546104bd90611608565b80601f01602080910402602001604051908101604052809291908181526020018280546104e990611608565b80156105365780601f1061050b57610100808354040283529160200191610536565b820191906000526020600020905b81548152906001019060200180831161051957829003601f168201915b50505091835250506005919091015460ff1615156020909101528261055c6001846115ef565b8151811061056c5761056c61163c565b6020026020010181905250808061058290611652565b9150506102cc565b50919050565b600080546001600160a01b031633146105bb5760405162461bcd60e51b81526004016101a790611562565b6000851180156105cc575060055485105b6105e85760405162461bcd60e51b81526004016101a7906115b0565b6000858152600160205260409020600581015460ff161561060d576000915050610640565b6001810161061b86826116ba565b506002810161062a85826116ba565b506003810161063984826116ba565b5060019150505b949350505050565b600080546001600160a01b031633146106735760405162461bcd60e51b81526004016101a790611562565b600086118015610684575060055486105b6106a05760405162461bcd60e51b81526004016101a7906115b0565b60006106ad868686610fab565b600088815260048201602052604090205490915060ff16156107095760405162461bcd60e51b81526020600482015260156024820152741093d3d2d7d053149150511657d093d49493d5d151605a1b60448201526064016101a7565b6040805160c0810182526006805480835260208084018c81528654858701908152606086018a815260006080880181815260a0890182815296825260028087528a832099518a55945160018a81019190915593519489019490945590516003880155915160048088019190915593516005909601805496151560ff199788161790558d82529287019091529384208054909316179091558054916107ac83611652565b9091555050600654979650505050505050565b6060600060016006546107d291906115ef565b67ffffffffffffffff8111156107ea576107ea61121d565b60405190808252806020026020018201604052801561085657816020015b6108436040518060c0016040528060008152602001600081526020016000815260200160008152602001600081526020016000151581525090565b8152602001906001900390816108085790505b50905060015b60065481101561058a576000818152600260209081526040808320600101548352600490915290205460ff1661090f57600081815260026020818152604092839020835160c08101855281548152600180830154938201939093529281015493830193909352600383015460608301526004830154608083015260059092015460ff16151560a08201529083906108f390846115ef565b815181106109035761090361163c565b60200260200101819052505b8061091981611652565b91505061085c565b600082118015610932575060065482105b6109795760405162461bcd60e51b8152602060048201526018602482015277125b9d985b1a5908189bdc9c9bddd95908189bdbdac8125160421b60448201526064016101a7565b6000828152600260205260409020600581015460ff16156109d05760405162461bcd60e51b81526020600482015260116024820152701093d3d2d7d053149150511657d313d4d5607a1b60448201526064016101a7565b6004808201839055600282015460008181526003602090815260408083206001870154845294850190915290205490919060ff16610a505760405162461bcd60e51b815260206004820152601d60248201527f424f4f4b5f4e4f545f424f52524f5745445f42595f424f52524f57455200000060448201526064016101a7565b600190920154600090815260049092016020525060409020805460ff191690555050565b600080546001600160a01b03163314610a9f5760405162461bcd60e51b81526004016101a790611562565b610aa761109f565b600554808252602080830189815260408085018a9052606085018990526080850188905286151560a08601526000938452600192839052909220835181559151839291820190610af790826116ba565b5060408201516002820190610b0c90826116ba565b5060608201516003820190610b2190826116ba565b5060808201516004820190610b3690826116ba565b5060a091909101516005918201805460ff19169115159190911790558054906000610b6083611652565b9091555050519695505050505050565b610b7861109f565b600082118015610b89575060055482105b610ba55760405162461bcd60e51b81526004016101a7906115b0565b600082815260016020818152604092839020835160c0810190945280548452918201805491840191610bd690611608565b80601f0160208091040260200160405190810160405280929190818152602001828054610c0290611608565b8015610c4f5780601f10610c2457610100808354040283529160200191610c4f565b820191906000526020600020905b815481529060010190602001808311610c3257829003601f168201915b50505050508152602001600282018054610c6890611608565b80601f0160208091040260200160405190810160405280929190818152602001828054610c9490611608565b8015610ce15780601f10610cb657610100808354040283529160200191610ce1565b820191906000526020600020905b815481529060010190602001808311610cc457829003601f168201915b50505050508152602001600382018054610cfa90611608565b80601f0160208091040260200160405190810160405280929190818152602001828054610d2690611608565b8015610d735780601f10610d4857610100808354040283529160200191610d73565b820191906000526020600020905b815481529060010190602001808311610d5657829003601f168201915b50505050508152602001600482018054610d8c90611608565b80601f0160208091040260200160405190810160405280929190818152602001828054610db890611608565b8015610e055780601f10610dda57610100808354040283529160200191610e05565b820191906000526020600020905b815481529060010190602001808311610de857829003601f168201915b50505091835250506005919091015460ff16151560209091015292915050565b6000546001600160a01b03163314610e4f5760405162461bcd60e51b81526004016101a790611562565b600081118015610e60575060065481105b610ea75760405162461bcd60e51b8152602060048201526018602482015277125b9d985b1a5908189bdc9c9bddd95908189bdbdac8125160421b60448201526064016101a7565b6000818152600260205260409020600581015460ff1615610efe5760405162461bcd60e51b81526020600482015260116024820152701093d3d2d7d053149150511657d313d4d5607a1b60448201526064016101a7565b60058101805460ff19166001908117909155600282015460008181526003602090815260408083209486015483526004850190915290205490919060ff16610f885760405162461bcd60e51b815260206004820152601d60248201527f424f4f4b5f4e4f545f424f52524f5745445f42595f424f52524f57455200000060448201526064016101a7565b600190920154600090815260049092016020525060409020805460ff1916905550565b600060015b60075481101561103d576000600360008381526020019081526020016000209050858051906020012081600101604051610fea919061177a565b604051809103902014801561101c57508451602086012060405161101290600284019061177a565b6040518091039020145b1561102a5791506110989050565b508061103581611652565b915050610fb0565b5060075460008181526003602052604090209081556001810161106086826116ba565b506002810161106f85826116ba565b506003810161107e84826116ba565b506007805490600061108f83611652565b90915550909150505b9392505050565b6040518060c0016040528060008152602001606081526020016060815260200160608152602001606081526020016000151581525090565b6000602082840312156110e957600080fd5b5035919050565b6000815180845260005b81811015611116576020818501810151868301820152016110fa565b506000602082860101526020601f19601f83011685010191505092915050565b805182526000602082015160c0602085015261115560c08501826110f0565b90506040830151848203604086015261116e82826110f0565b9150506060830151848203606086015261118882826110f0565b915050608083015184820360808601526111a282826110f0565b91505060a0830151151560a08501528091505092915050565b6000602080830181845280855180835260408601915060408160051b870101925083870160005b8281101561121057603f198886030184526111fe858351611136565b945092850192908501906001016111e2565b5092979650505050505050565b634e487b7160e01b600052604160045260246000fd5b600082601f83011261124457600080fd5b813567ffffffffffffffff8082111561125f5761125f61121d565b604051601f8301601f19908116603f011681019082821181831017156112875761128761121d565b816040528381528660208588010111156112a057600080fd5b836020870160208301376000602085830101528094505050505092915050565b600080600080608085870312156112d657600080fd5b84359350602085013567ffffffffffffffff808211156112f557600080fd5b61130188838901611233565b9450604087013591508082111561131757600080fd5b61132388838901611233565b9350606087013591508082111561133957600080fd5b5061134687828801611233565b91505092959194509250565b600080600080600060a0868803121561136a57600080fd5b85359450602086013567ffffffffffffffff8082111561138957600080fd5b61139589838a01611233565b955060408801359150808211156113ab57600080fd5b6113b789838a01611233565b945060608801359150808211156113cd57600080fd5b506113da88828901611233565b95989497509295608001359392505050565b602080825282518282018190526000919060409081850190868401855b828110156114595781518051855286810151878601528581015186860152606080820151908601526080808201519086015260a09081015115159085015260c09093019290850190600101611409565b5091979650505050505050565b6000806040838503121561147957600080fd5b50508035926020909101359150565b600080600080600060a086880312156114a057600080fd5b853567ffffffffffffffff808211156114b857600080fd5b6114c489838a01611233565b965060208801359150808211156114da57600080fd5b6114e689838a01611233565b955060408801359150808211156114fc57600080fd5b61150889838a01611233565b9450606088013591508082111561151e57600080fd5b5061152b88828901611233565b9250506080860135801515811461154157600080fd5b809150509295509295909350565b6020815260006110986020830184611136565b6020808252602e908201527f4f6e6c792074686520636f6e7472616374206f776e65722063616e2063616c6c60408201526d103a3434b990333ab731ba34b7b760911b606082015260800190565b6020808252600f908201526e125b9d985b1a5908189bdbdac81251608a1b604082015260600190565b634e487b7160e01b600052601160045260246000fd5b81810381811115611602576116026115d9565b92915050565b600181811c9082168061161c57607f821691505b60208210810361058a57634e487b7160e01b600052602260045260246000fd5b634e487b7160e01b600052603260045260246000fd5b600060018201611664576116646115d9565b5060010190565b601f8211156116b557600081815260208120601f850160051c810160208610156116925750805b601f850160051c820191505b818110156116b15782815560010161169e565b5050505b505050565b815167ffffffffffffffff8111156116d4576116d461121d565b6116e8816116e28454611608565b8461166b565b602080601f83116001811461171d57600084156117055750858301515b600019600386901b1c1916600185901b1785556116b1565b600085815260208120601f198616915b8281101561174c5788860151825594840194600190910190840161172d565b508582101561176a5787850151600019600388901b60f8161c191681555b5050505050600190811b01905550565b600080835461178881611608565b600182811680156117a057600181146117b5576117e4565b60ff19841687528215158302870194506117e4565b8760005260208060002060005b858110156117db5781548a8201529084019082016117c2565b50505082870194505b5092969550505050505056fea2646970667358221220a0414ce9ac656a310cb1ec0e2897c7ebec4602e6dc51aba433c3c48e434119f564736f6c63430008130033",
    "sourcePath": "d:/LibraryManagement/Library-contract/contracts/Library_management.sol",
    "compiler": {
        "name": "solc",
        "version": "0.8.19+commit.7dd6d404"
    },
    "functionHashes": {
        "addBook(string,string,string,string,bool)": "d2ea769a",
        "borrowBook(uint256,string,string,string,uint256)": "7586f9f1",
        "deleteBook(uint256)": "2151fb38",
        "getAllBooks()": "354528e8",
        "getBook(uint256)": "e0ff5b8b",
        "getBorrowedBooks()": "8ccca18a",
        "markBookLost(uint256)": "f1b4c912",
        "returnBook(uint256,uint256)": "ce034cf2",
        "updateBook(uint256,string,string,string)": "3904e647"
    },
    "gasEstimates": {
        "creation": {
            "codeDepositCost": "1236400",
            "executionCost": "91841",
            "totalCost": "1328241"
        },
        "external": {
            "addBook(string,string,string,string,bool)": "infinite",
            "borrowBook(uint256,string,string,string,uint256)": "infinite",
            "deleteBook(uint256)": "55246",
            "getAllBooks()": "infinite",
            "getBook(uint256)": "infinite",
            "getBorrowedBooks()": "infinite",
            "markBookLost(uint256)": "63946",
            "returnBook(uint256,uint256)": "59644",
            "updateBook(uint256,string,string,string)": "infinite"
        },
        "internal": {
            "findOrCreateBorrower(string memory,string memory,string memory)": "infinite"
        }
    }
}